{
  "contractName": "EternalStorage",
  "abi": [
    {
      "constant": true,
      "inputs": [],
      "name": "owner",
      "outputs": [
        {
          "name": "",
          "type": "address"
        }
      ],
      "payable": false,
      "stateMutability": "view",
      "type": "function"
    },
    {
      "constant": true,
      "inputs": [],
      "name": "isOwner",
      "outputs": [
        {
          "name": "",
          "type": "bool"
        }
      ],
      "payable": false,
      "stateMutability": "view",
      "type": "function"
    },
    {
      "constant": false,
      "inputs": [
        {
          "name": "newOwner",
          "type": "address"
        }
      ],
      "name": "transferOwnership",
      "outputs": [],
      "payable": false,
      "stateMutability": "nonpayable",
      "type": "function"
    },
    {
      "anonymous": false,
      "inputs": [
        {
          "indexed": false,
          "name": "whichContract",
          "type": "address"
        }
      ],
      "name": "ContractConnected",
      "type": "event"
    },
    {
      "anonymous": false,
      "inputs": [
        {
          "indexed": false,
          "name": "whichContract",
          "type": "address"
        }
      ],
      "name": "ContractDisconnected",
      "type": "event"
    },
    {
      "anonymous": false,
      "inputs": [
        {
          "indexed": true,
          "name": "previousOwner",
          "type": "address"
        },
        {
          "indexed": true,
          "name": "newOwner",
          "type": "address"
        }
      ],
      "name": "OwnershipTransferred",
      "type": "event"
    },
    {
      "constant": true,
      "inputs": [
        {
          "name": "whichContract",
          "type": "address"
        }
      ],
      "name": "isContractConnected",
      "outputs": [
        {
          "name": "",
          "type": "bool"
        }
      ],
      "payable": false,
      "stateMutability": "view",
      "type": "function"
    },
    {
      "constant": false,
      "inputs": [
        {
          "name": "whichContract",
          "type": "address"
        }
      ],
      "name": "connectContract",
      "outputs": [
        {
          "name": "",
          "type": "bool"
        }
      ],
      "payable": false,
      "stateMutability": "nonpayable",
      "type": "function"
    },
    {
      "constant": false,
      "inputs": [
        {
          "name": "whichContract",
          "type": "address"
        }
      ],
      "name": "disconnectContract",
      "outputs": [
        {
          "name": "",
          "type": "bool"
        }
      ],
      "payable": false,
      "stateMutability": "nonpayable",
      "type": "function"
    },
    {
      "constant": true,
      "inputs": [
        {
          "name": "_key",
          "type": "bytes32"
        }
      ],
      "name": "getUint",
      "outputs": [
        {
          "name": "",
          "type": "uint256"
        }
      ],
      "payable": false,
      "stateMutability": "view",
      "type": "function"
    },
    {
      "constant": false,
      "inputs": [
        {
          "name": "_key",
          "type": "bytes32"
        },
        {
          "name": "_value",
          "type": "uint256"
        }
      ],
      "name": "setUint",
      "outputs": [
        {
          "name": "",
          "type": "bool"
        }
      ],
      "payable": false,
      "stateMutability": "nonpayable",
      "type": "function"
    },
    {
      "constant": false,
      "inputs": [
        {
          "name": "_key",
          "type": "bytes32"
        }
      ],
      "name": "deleteUint",
      "outputs": [],
      "payable": false,
      "stateMutability": "nonpayable",
      "type": "function"
    },
    {
      "constant": true,
      "inputs": [
        {
          "name": "_key",
          "type": "bytes32"
        }
      ],
      "name": "getInt",
      "outputs": [
        {
          "name": "",
          "type": "int256"
        }
      ],
      "payable": false,
      "stateMutability": "view",
      "type": "function"
    },
    {
      "constant": false,
      "inputs": [
        {
          "name": "_key",
          "type": "bytes32"
        },
        {
          "name": "_value",
          "type": "int256"
        }
      ],
      "name": "setInt",
      "outputs": [
        {
          "name": "",
          "type": "bool"
        }
      ],
      "payable": false,
      "stateMutability": "nonpayable",
      "type": "function"
    },
    {
      "constant": false,
      "inputs": [
        {
          "name": "_key",
          "type": "bytes32"
        }
      ],
      "name": "deleteInt",
      "outputs": [],
      "payable": false,
      "stateMutability": "nonpayable",
      "type": "function"
    },
    {
      "constant": true,
      "inputs": [
        {
          "name": "_key",
          "type": "bytes32"
        }
      ],
      "name": "getAddress",
      "outputs": [
        {
          "name": "",
          "type": "address"
        }
      ],
      "payable": false,
      "stateMutability": "view",
      "type": "function"
    },
    {
      "constant": false,
      "inputs": [
        {
          "name": "_key",
          "type": "bytes32"
        },
        {
          "name": "_value",
          "type": "address"
        }
      ],
      "name": "setAddress",
      "outputs": [
        {
          "name": "",
          "type": "bool"
        }
      ],
      "payable": false,
      "stateMutability": "nonpayable",
      "type": "function"
    },
    {
      "constant": false,
      "inputs": [
        {
          "name": "_key",
          "type": "bytes32"
        }
      ],
      "name": "deleteAddress",
      "outputs": [],
      "payable": false,
      "stateMutability": "nonpayable",
      "type": "function"
    },
    {
      "constant": true,
      "inputs": [
        {
          "name": "_key",
          "type": "bytes32"
        }
      ],
      "name": "getBytes",
      "outputs": [
        {
          "name": "",
          "type": "bytes"
        }
      ],
      "payable": false,
      "stateMutability": "view",
      "type": "function"
    },
    {
      "constant": false,
      "inputs": [
        {
          "name": "_key",
          "type": "bytes32"
        },
        {
          "name": "_value",
          "type": "bytes"
        }
      ],
      "name": "setBytes",
      "outputs": [
        {
          "name": "",
          "type": "bool"
        }
      ],
      "payable": false,
      "stateMutability": "nonpayable",
      "type": "function"
    },
    {
      "constant": false,
      "inputs": [
        {
          "name": "_key",
          "type": "bytes32"
        }
      ],
      "name": "deleteBytes",
      "outputs": [],
      "payable": false,
      "stateMutability": "nonpayable",
      "type": "function"
    },
    {
      "constant": true,
      "inputs": [
        {
          "name": "_key",
          "type": "bytes32"
        }
      ],
      "name": "getBool",
      "outputs": [
        {
          "name": "",
          "type": "bool"
        }
      ],
      "payable": false,
      "stateMutability": "view",
      "type": "function"
    },
    {
      "constant": false,
      "inputs": [
        {
          "name": "_key",
          "type": "bytes32"
        },
        {
          "name": "_value",
          "type": "bool"
        }
      ],
      "name": "setBol",
      "outputs": [
        {
          "name": "",
          "type": "bool"
        }
      ],
      "payable": false,
      "stateMutability": "nonpayable",
      "type": "function"
    },
    {
      "constant": false,
      "inputs": [
        {
          "name": "_key",
          "type": "bytes32"
        }
      ],
      "name": "deleteBool",
      "outputs": [],
      "payable": false,
      "stateMutability": "nonpayable",
      "type": "function"
    },
    {
      "constant": true,
      "inputs": [
        {
          "name": "_key",
          "type": "bytes32"
        }
      ],
      "name": "getString",
      "outputs": [
        {
          "name": "",
          "type": "string"
        }
      ],
      "payable": false,
      "stateMutability": "view",
      "type": "function"
    },
    {
      "constant": false,
      "inputs": [
        {
          "name": "_key",
          "type": "bytes32"
        },
        {
          "name": "_value",
          "type": "string"
        }
      ],
      "name": "setString",
      "outputs": [
        {
          "name": "",
          "type": "bool"
        }
      ],
      "payable": false,
      "stateMutability": "nonpayable",
      "type": "function"
    },
    {
      "constant": false,
      "inputs": [
        {
          "name": "_key",
          "type": "bytes32"
        }
      ],
      "name": "deleteString",
      "outputs": [],
      "payable": false,
      "stateMutability": "nonpayable",
      "type": "function"
    }
  ],
  "bytecode": "0x6080604052336000806101000a81548173ffffffffffffffffffffffffffffffffffffffff021916908373ffffffffffffffffffffffffffffffffffffffff1602179055506000809054906101000a900473ffffffffffffffffffffffffffffffffffffffff1673ffffffffffffffffffffffffffffffffffffffff16600073ffffffffffffffffffffffffffffffffffffffff167f8be0079c531659141344cd1fd0a4f28419497f9722a3daafe3b4186f6b6457e060405160405180910390a3611eb9806100cf6000396000f30060806040526004361061013e576000357c0100000000000000000000000000000000000000000000000000000000900463ffffffff1680630e14a376146101435780631568a36a1461017457806321f8a721146101c95780632c62ff2d1461023a5780632e28d0841461026b5780633e49bed0146102cc57806347724b651461031f578063616b59f61461037a5780636e899550146103ab5780637ae1cfca1461040c5780638c160095146104555780638da5cb5b146104865780638f32d59b146104dd578063986e791a1461050c578063bd02d0f5146105b6578063c031a180146105fb578063ca446dd9146106a5578063dc97d9621461070e578063e2a4853a14610753578063e2b202bf146107a6578063e4548ea7146107d7578063ebb7953214610832578063f2fde38b1461088d578063f6bb3cc4146108d0575b600080fd5b34801561014f57600080fd5b506101726004803603810190808035600019169060200190929190505050610901565b005b34801561018057600080fd5b506101af6004803603810190808035600019169060200190929190803515159060200190929190505050610a03565b604051808215151515815260200191505060405180910390f35b3480156101d557600080fd5b506101f86004803603810190808035600019169060200190929190505050610b03565b604051808273ffffffffffffffffffffffffffffffffffffffff1673ffffffffffffffffffffffffffffffffffffffff16815260200191505060405180910390f35b34801561024657600080fd5b506102696004803603810190808035600019169060200190929190505050610b48565b005b34801561027757600080fd5b506102b26004803603810190808035600019169060200190929190803590602001908201803590602001919091929391929390505050610c37565b604051808215151515815260200191505060405180910390f35b3480156102d857600080fd5b50610305600480360381019080803560001916906020019092919080359060200190929190505050610d30565b604051808215151515815260200191505060405180910390f35b34801561032b57600080fd5b50610360600480360381019080803573ffffffffffffffffffffffffffffffffffffffff169060200190929190505050610e1d565b604051808215151515815260200191505060405180910390f35b34801561038657600080fd5b506103a96004803603810190808035600019169060200190929190505050610fa6565b005b3480156103b757600080fd5b506103f26004803603810190808035600019169060200190929190803590602001908201803590602001919091929391929390505050611091565b604051808215151515815260200191505060405180910390f35b34801561041857600080fd5b5061043b600480360381019080803560001916906020019092919050505061118a565b604051808215151515815260200191505060405180910390f35b34801561046157600080fd5b5061048460048036038101908080356000191690602001909291905050506111bc565b005b34801561049257600080fd5b5061049b61129f565b604051808273ffffffffffffffffffffffffffffffffffffffff1673ffffffffffffffffffffffffffffffffffffffff16815260200191505060405180910390f35b3480156104e957600080fd5b506104f26112c8565b604051808215151515815260200191505060405180910390f35b34801561051857600080fd5b5061053b600480360381019080803560001916906020019092919050505061131f565b6040518080602001828103825283818151815260200191508051906020019080838360005b8381101561057b578082015181840152602081019050610560565b50505050905090810190601f1680156105a85780820380516001836020036101000a031916815260200191505b509250505060405180910390f35b3480156105c257600080fd5b506105e560048036038101908080356000191690602001909291905050506113dc565b6040518082815260200191505060405180910390f35b34801561060757600080fd5b5061062a6004803603810190808035600019169060200190929190505050611401565b6040518080602001828103825283818151815260200191508051906020019080838360005b8381101561066a57808201518184015260208101905061064f565b50505050905090810190601f1680156106975780820380516001836020036101000a031916815260200191505b509250505060405180910390f35b3480156106b157600080fd5b506106f46004803603810190808035600019169060200190929190803573ffffffffffffffffffffffffffffffffffffffff1690602001909291905050506114be565b604051808215151515815260200191505060405180910390f35b34801561071a57600080fd5b5061073d60048036038101908080356000191690602001909291905050506115e5565b6040518082815260200191505060405180910390f35b34801561075f57600080fd5b5061078c60048036038101908080356000191690602001909291908035906020019092919050505061160a565b604051808215151515815260200191505060405180910390f35b3480156107b257600080fd5b506107d560048036038101908080356000191690602001909291905050506116f7565b005b3480156107e357600080fd5b50610818600480360381019080803573ffffffffffffffffffffffffffffffffffffffff1690602001909291905050506117da565b604051808215151515815260200191505060405180910390f35b34801561083e57600080fd5b50610873600480360381019080803573ffffffffffffffffffffffffffffffffffffffff169060200190929190505050611964565b604051808215151515815260200191505060405180910390f35b34801561089957600080fd5b506108ce600480360381019080803573ffffffffffffffffffffffffffffffffffffffff1690602001909291905050506119ba565b005b3480156108dc57600080fd5b506108ff6004803603810190808035600019169060200190929190505050611a8a565b005b600160003373ffffffffffffffffffffffffffffffffffffffff1673ffffffffffffffffffffffffffffffffffffffff16815260200190815260200160002060009054906101000a900460ff1615156109c2576040517f08c379a000000000000000000000000000000000000000000000000000000000815260040180806020018281038252601e8152602001807f43616c6c696e6720636f6e7472616374206e6f7420636f6e6e6563746564000081525060200191505060405180910390fd5b60046000826000191660001916815260200190815260200160002060006101000a81549073ffffffffffffffffffffffffffffffffffffffff021916905550565b6000600160003373ffffffffffffffffffffffffffffffffffffffff1673ffffffffffffffffffffffffffffffffffffffff16815260200190815260200160002060009054906101000a900460ff161515610ac6576040517f08c379a000000000000000000000000000000000000000000000000000000000815260040180806020018281038252601e8152602001807f43616c6c696e6720636f6e7472616374206e6f7420636f6e6e6563746564000081525060200191505060405180910390fd5b8160066000856000191660001916815260200190815260200160002060006101000a81548160ff0219169083151502179055506001905092915050565b600060046000836000191660001916815260200190815260200160002060009054906101000a900473ffffffffffffffffffffffffffffffffffffffff169050919050565b600160003373ffffffffffffffffffffffffffffffffffffffff1673ffffffffffffffffffffffffffffffffffffffff16815260200190815260200160002060009054906101000a900460ff161515610c09576040517f08c379a000000000000000000000000000000000000000000000000000000000815260040180806020018281038252601e8152602001807f43616c6c696e6720636f6e7472616374206e6f7420636f6e6e6563746564000081525060200191505060405180910390fd5b60066000826000191660001916815260200190815260200160002060006101000a81549060ff021916905550565b6000600160003373ffffffffffffffffffffffffffffffffffffffff1673ffffffffffffffffffffffffffffffffffffffff16815260200190815260200160002060009054906101000a900460ff161515610cfa576040517f08c379a000000000000000000000000000000000000000000000000000000000815260040180806020018281038252601e8152602001807f43616c6c696e6720636f6e7472616374206e6f7420636f6e6e6563746564000081525060200191505060405180910390fd5b82826005600087600019166000191681526020019081526020016000209190610d24929190611cd8565b50600190509392505050565b6000600160003373ffffffffffffffffffffffffffffffffffffffff1673ffffffffffffffffffffffffffffffffffffffff16815260200190815260200160002060009054906101000a900460ff161515610df3576040517f08c379a000000000000000000000000000000000000000000000000000000000815260040180806020018281038252601e8152602001807f43616c6c696e6720636f6e7472616374206e6f7420636f6e6e6563746564000081525060200191505060405180910390fd5b81600360008560001916600019168152602001908152602001600020819055506001905092915050565b60008060009054906101000a900473ffffffffffffffffffffffffffffffffffffffff1673ffffffffffffffffffffffffffffffffffffffff163373ffffffffffffffffffffffffffffffffffffffff16141515610ee3576040517f08c379a000000000000000000000000000000000000000000000000000000000815260040180806020018281038252600d8152602001807f4e6f7420746865206f776e65720000000000000000000000000000000000000081525060200191505060405180910390fd5b60018060008473ffffffffffffffffffffffffffffffffffffffff1673ffffffffffffffffffffffffffffffffffffffff16815260200190815260200160002060006101000a81548160ff0219169083151502179055507f1383c346b41a42665ef371e6634ef404ca4b1554b78560f0b0a45148065eecdc82604051808273ffffffffffffffffffffffffffffffffffffffff1673ffffffffffffffffffffffffffffffffffffffff16815260200191505060405180910390a160019050919050565b600160003373ffffffffffffffffffffffffffffffffffffffff1673ffffffffffffffffffffffffffffffffffffffff16815260200190815260200160002060009054906101000a900460ff161515611067576040517f08c379a000000000000000000000000000000000000000000000000000000000815260040180806020018281038252601e8152602001807f43616c6c696e6720636f6e7472616374206e6f7420636f6e6e6563746564000081525060200191505060405180910390fd5b600560008260001916600019168152602001908152602001600020600061108e9190611d58565b50565b6000600160003373ffffffffffffffffffffffffffffffffffffffff1673ffffffffffffffffffffffffffffffffffffffff16815260200190815260200160002060009054906101000a900460ff161515611154576040517f08c379a000000000000000000000000000000000000000000000000000000000815260040180806020018281038252601e8152602001807f43616c6c696e6720636f6e7472616374206e6f7420636f6e6e6563746564000081525060200191505060405180910390fd5b8282600760008760001916600019168152602001908152602001600020919061117e929190611da0565b50600190509392505050565b600060066000836000191660001916815260200190815260200160002060009054906101000a900460ff169050919050565b600160003373ffffffffffffffffffffffffffffffffffffffff1673ffffffffffffffffffffffffffffffffffffffff16815260200190815260200160002060009054906101000a900460ff16151561127d576040517f08c379a000000000000000000000000000000000000000000000000000000000815260040180806020018281038252601e8152602001807f43616c6c696e6720636f6e7472616374206e6f7420636f6e6e6563746564000081525060200191505060405180910390fd5b6003600082600019166000191681526020019081526020016000206000905550565b60008060009054906101000a900473ffffffffffffffffffffffffffffffffffffffff16905090565b60008060009054906101000a900473ffffffffffffffffffffffffffffffffffffffff1673ffffffffffffffffffffffffffffffffffffffff163373ffffffffffffffffffffffffffffffffffffffff1614905090565b60606007600083600019166000191681526020019081526020016000208054600181600116156101000203166002900480601f0160208091040260200160405190810160405280929190818152602001828054600181600116156101000203166002900480156113d05780601f106113a5576101008083540402835291602001916113d0565b820191906000526020600020905b8154815290600101906020018083116113b357829003601f168201915b50505050509050919050565b6000600260008360001916600019168152602001908152602001600020549050919050565b60606005600083600019166000191681526020019081526020016000208054600181600116156101000203166002900480601f0160208091040260200160405190810160405280929190818152602001828054600181600116156101000203166002900480156114b25780601f10611487576101008083540402835291602001916114b2565b820191906000526020600020905b81548152906001019060200180831161149557829003601f168201915b50505050509050919050565b6000600160003373ffffffffffffffffffffffffffffffffffffffff1673ffffffffffffffffffffffffffffffffffffffff16815260200190815260200160002060009054906101000a900460ff161515611581576040517f08c379a000000000000000000000000000000000000000000000000000000000815260040180806020018281038252601e8152602001807f43616c6c696e6720636f6e7472616374206e6f7420636f6e6e6563746564000081525060200191505060405180910390fd5b8160046000856000191660001916815260200190815260200160002060006101000a81548173ffffffffffffffffffffffffffffffffffffffff021916908373ffffffffffffffffffffffffffffffffffffffff1602179055506001905092915050565b6000600360008360001916600019168152602001908152602001600020549050919050565b6000600160003373ffffffffffffffffffffffffffffffffffffffff1673ffffffffffffffffffffffffffffffffffffffff16815260200190815260200160002060009054906101000a900460ff1615156116cd576040517f08c379a000000000000000000000000000000000000000000000000000000000815260040180806020018281038252601e8152602001807f43616c6c696e6720636f6e7472616374206e6f7420636f6e6e6563746564000081525060200191505060405180910390fd5b81600260008560001916600019168152602001908152602001600020819055506001905092915050565b600160003373ffffffffffffffffffffffffffffffffffffffff1673ffffffffffffffffffffffffffffffffffffffff16815260200190815260200160002060009054906101000a900460ff1615156117b8576040517f08c379a000000000000000000000000000000000000000000000000000000000815260040180806020018281038252601e8152602001807f43616c6c696e6720636f6e7472616374206e6f7420636f6e6e6563746564000081525060200191505060405180910390fd5b6002600082600019166000191681526020019081526020016000206000905550565b60008060009054906101000a900473ffffffffffffffffffffffffffffffffffffffff1673ffffffffffffffffffffffffffffffffffffffff163373ffffffffffffffffffffffffffffffffffffffff161415156118a0576040517f08c379a000000000000000000000000000000000000000000000000000000000815260040180806020018281038252600d8152602001807f4e6f7420746865206f776e65720000000000000000000000000000000000000081525060200191505060405180910390fd5b6000600160008473ffffffffffffffffffffffffffffffffffffffff1673ffffffffffffffffffffffffffffffffffffffff16815260200190815260200160002060006101000a81548160ff0219169083151502179055507fdb93a6c8e2d134d883c47922ea733c0c5dd53255d5b8f4534f797149e04da31882604051808273ffffffffffffffffffffffffffffffffffffffff1673ffffffffffffffffffffffffffffffffffffffff16815260200191505060405180910390a160019050919050565b6000600160008373ffffffffffffffffffffffffffffffffffffffff1673ffffffffffffffffffffffffffffffffffffffff16815260200190815260200160002060009054906101000a900460ff169050919050565b6000809054906101000a900473ffffffffffffffffffffffffffffffffffffffff1673ffffffffffffffffffffffffffffffffffffffff163373ffffffffffffffffffffffffffffffffffffffff16141515611a7e576040517f08c379a000000000000000000000000000000000000000000000000000000000815260040180806020018281038252600d8152602001807f4e6f7420746865206f776e65720000000000000000000000000000000000000081525060200191505060405180910390fd5b611a8781611b75565b50565b600160003373ffffffffffffffffffffffffffffffffffffffff1673ffffffffffffffffffffffffffffffffffffffff16815260200190815260200160002060009054906101000a900460ff161515611b4b576040517f08c379a000000000000000000000000000000000000000000000000000000000815260040180806020018281038252601e8152602001807f43616c6c696e6720636f6e7472616374206e6f7420636f6e6e6563746564000081525060200191505060405180910390fd5b6007600082600019166000191681526020019081526020016000206000611b729190611e20565b50565b600073ffffffffffffffffffffffffffffffffffffffff168173ffffffffffffffffffffffffffffffffffffffff1614151515611c1a576040517f08c379a00000000000000000000000000000000000000000000000000000000081526004018080602001828103825260198152602001807f4f776e65722063616e6e6f74206265206164647265737320300000000000000081525060200191505060405180910390fd5b8073ffffffffffffffffffffffffffffffffffffffff166000809054906101000a900473ffffffffffffffffffffffffffffffffffffffff1673ffffffffffffffffffffffffffffffffffffffff167f8be0079c531659141344cd1fd0a4f28419497f9722a3daafe3b4186f6b6457e060405160405180910390a3806000806101000a81548173ffffffffffffffffffffffffffffffffffffffff021916908373ffffffffffffffffffffffffffffffffffffffff16021790555050565b828054600181600116156101000203166002900490600052602060002090601f016020900481019282601f10611d1957803560ff1916838001178555611d47565b82800160010185558215611d47579182015b82811115611d46578235825591602001919060010190611d2b565b5b509050611d549190611e68565b5090565b50805460018160011615610100020316600290046000825580601f10611d7e5750611d9d565b601f016020900490600052602060002090810190611d9c9190611e68565b5b50565b828054600181600116156101000203166002900490600052602060002090601f016020900481019282601f10611de157803560ff1916838001178555611e0f565b82800160010185558215611e0f579182015b82811115611e0e578235825591602001919060010190611df3565b5b509050611e1c9190611e68565b5090565b50805460018160011615610100020316600290046000825580601f10611e465750611e65565b601f016020900490600052602060002090810190611e649190611e68565b5b50565b611e8a91905b80821115611e86576000816000905550600101611e6e565b5090565b905600a165627a7a7230582036bdb68711781be51e9a9f58c8ef4b3b61b77f367f729e859c4418d410050afe0029",
  "source": "pragma solidity ^0.4.21;\n\nimport \"./Ownable.sol\";\n\n/**\n * @title EternalStorage\n * @dev The EternalStorage contract can be used to keep all the storage needed for contracts, which would\n * then access it (to set and read) by reference. This way, contracts can stay storage-less, and therefore\n * can be easily updated (migrated) without affecting the storage.\n * @dev Contracts that will be using this EternalStorage repository need to be whitelisted (\"connected\")\n * in order to be able to write the storage. Only the owner can whitelist (\"connect\") and unwhitelist\n * (\"disconnect\") individual contracts.\n */\ncontract EternalStorage is Ownable {\n\n    mapping (address => bool) private _connectedContracts;\n\n    event ContractConnected(address whichContract);\n    event ContractDisconnected(address whichContract);\n\n    mapping(bytes32 => uint256) private _uIntStorage;\n    mapping(bytes32 => int256) private _intStorage;\n    mapping(bytes32 => address) private _addressStorage;\n    mapping(bytes32 => bytes) private _bytesStorage;\n    mapping(bytes32 => bool) private _boolStorage;\n    mapping(bytes32 => string) private _stringStorage;\n\n    /**\n     * @dev Throws if called by any account other than the _userContract.\n     */\n    modifier onlyConnectedContract() {\n        require(_connectedContracts[msg.sender], \"Calling contract not connected\");\n        _;\n    }\n\n    /**\n     * @notice Returns whether a particular contract is whitelisted (\"connected\") to be able to\n     * write the eternal storage\n     * @param whichContract The address of the contract that is connected or not\n     */\n    function isContractConnected(address whichContract) public view returns (bool) {\n        return _connectedContracts[whichContract];\n    }\n\n    /**\n     * @notice Whitlists (\"connects\") a contract to be able to write the eternal storage\n     * @dev Only the owner can connect a contract to the eternal storage\n     * @param whichContract The address of the contract that gets connected\n     */\n    function connectContract(address whichContract) external onlyOwner returns (bool) {\n        _connectedContracts[whichContract] = true;\n        emit ContractConnected(whichContract);\n        return true;\n    }\n\n    /**\n     * @notice Unwhitlists (\"disconnects\") a contract so it will no longer be able to\n     * write the eternal storage\n     * @dev Only the owner can disconnect a contract from the eternal storage\n     * @param whichContract The address of the contract that gets disconnected\n     */\n    function disconnectContract(address whichContract) external onlyOwner returns (bool) {\n        _connectedContracts[whichContract] = false;\n        emit ContractDisconnected(whichContract);\n        return true;\n    }\n\n    // uint256\n\n    /**\n     * @notice Reads the value of a uint256 corresponding to a key\n     * @param _key The key that indexes the value\n     */\n    function getUint(bytes32 _key) external view returns(uint256) {\n        return _uIntStorage[_key];\n    }\n\n    /**\n     * @notice Sets the value of a uint256 corresponding to a key\n     * @param _key The key that indexes the value\n     */\n    function setUint(bytes32 _key, uint _value) onlyConnectedContract external returns (bool) {\n        _uIntStorage[_key] = _value;\n        return true;\n    }\n\n    /**\n     * @notice Deletes the value of a uint256 corresponding to a key\n     * @param _key The key that indexes the value\n     */\n    function deleteUint(bytes32 _key) onlyConnectedContract external {\n        delete _uIntStorage[_key];\n    }\n\n    // int256\n\n    /**\n     * @notice Reads the value of a int256 corresponding to a key\n     * @param _key The key that indexes the value\n     */\n    function getInt(bytes32 _key) external view returns(int256) {\n        return _intStorage[_key];\n    }\n\n    /**\n     * @notice Sets the value of a int256 corresponding to a key\n     * @param _key The key that indexes the value\n     */\n    function setInt(bytes32 _key, int256 _value) onlyConnectedContract external returns (bool) {\n        _intStorage[_key] = _value;\n        return true;\n    }\n\n    /**\n     * @notice Deletes the value of a int256 corresponding to a key\n     * @param _key The key that indexes the value\n     */\n    function deleteInt(bytes32 _key) onlyConnectedContract external {\n        delete _intStorage[_key];\n    }\n\n    // address\n\n    /**\n     * @notice Reads the value of an address corresponding to a key\n     * @param _key The key that indexes the value\n     */\n    function getAddress(bytes32 _key) external view returns(address) {\n        return _addressStorage[_key];\n    }\n\n    /**\n     * @notice Sets the value of an address corresponding to a key\n     * @param _key The key that indexes the value\n     */\n    function setAddress(bytes32 _key, address _value) onlyConnectedContract external returns (bool) {\n        _addressStorage[_key] = _value;\n        return true;\n    }\n\n    /**\n     * @notice Deletes the value of an address corresponding to a key\n     * @param _key The key that indexes the value\n     */\n    function deleteAddress(bytes32 _key) onlyConnectedContract external {\n        delete _addressStorage[_key];\n    }\n\n    // bytes\n\n    /**\n     * @notice Reads the value of a bytes32 corresponding to a key\n     * @param _key The key that indexes the value\n     */\n    function getBytes(bytes32 _key) external view returns(bytes) {\n        return _bytesStorage[_key];\n    }\n\n    /**\n     * @notice Sets the value of a bytes32 corresponding to a key\n     * @param _key The key that indexes the value\n     */\n    function setBytes(bytes32 _key, bytes _value) onlyConnectedContract external returns (bool) {\n        _bytesStorage[_key] = _value;\n        return true;\n    }\n\n    /**\n     * @notice Deletes the value of a bytes32 corresponding to a key\n     * @param _key The key that indexes the value\n     */\n    function deleteBytes(bytes32 _key) onlyConnectedContract external {\n        delete _bytesStorage[_key];\n    }\n\n    // bool\n\n    /**\n     * @notice Reads the value of a bool corresponding to a key\n     * @param _key The key that indexes the value\n     */\n    function getBool(bytes32 _key) external view returns(bool) {\n        return _boolStorage[_key];\n    }\n\n    /**\n     * @notice Sets the value of a bool corresponding to a key\n     * @param _key The key that indexes the value\n     */\n    function setBol(bytes32 _key, bool _value) onlyConnectedContract external returns (bool) {\n        _boolStorage[_key] = _value;\n        return true;\n    }\n\n    /**\n     * @notice Deletes the value of a bool corresponding to a key\n     * @param _key The key that indexes the value\n     */\n    function deleteBool(bytes32 _key) onlyConnectedContract external {\n        delete _boolStorage[_key];\n    }\n\n    // string\n\n    /**\n     * @notice Reads the value of a string corresponding to a key\n     * @param _key The key that indexes the value\n     */\n    function getString(bytes32 _key) external view returns(string) {\n        return _stringStorage[_key];\n    }\n\n    /**\n     * @notice Sets the value of a string corresponding to a key\n     * @param _key The key that indexes the value\n     */\n    function setString(bytes32 _key, string _value) onlyConnectedContract external returns (bool) {\n        _stringStorage[_key] = _value;\n        return true;\n    }\n\n    /**\n     * @notice Deletes the value of a string corresponding to a key\n     * @param _key The key that indexes the value\n     */\n    function deleteString(bytes32 _key) onlyConnectedContract external {\n        delete _stringStorage[_key];\n    }\n\n}",
  "sourcePath": "/Users/julio/Documents/gowork/src/github.com/juliofaura/EM-Token/contracts/EternalStorage.sol",
  "compiler": {
    "name": "solc",
    "version": "0.4.25+commit.59dbf8f1.Emscripten.clang"
  },
  "schemaVersion": "3.0.0",
  "updatedAt": "2019-01-11T19:59:32.561Z",
  "devdoc": {
    "methods": {
      "connectContract(address)": {
        "details": "Only the owner can connect a contract to the eternal storage",
        "params": {
          "whichContract": "The address of the contract that gets connected"
        }
      },
      "deleteAddress(bytes32)": {
        "params": {
          "_key": "The key that indexes the value"
        }
      },
      "deleteBool(bytes32)": {
        "params": {
          "_key": "The key that indexes the value"
        }
      },
      "deleteBytes(bytes32)": {
        "params": {
          "_key": "The key that indexes the value"
        }
      },
      "deleteInt(bytes32)": {
        "params": {
          "_key": "The key that indexes the value"
        }
      },
      "deleteString(bytes32)": {
        "params": {
          "_key": "The key that indexes the value"
        }
      },
      "deleteUint(bytes32)": {
        "params": {
          "_key": "The key that indexes the value"
        }
      },
      "disconnectContract(address)": {
        "details": "Only the owner can disconnect a contract from the eternal storage",
        "params": {
          "whichContract": "The address of the contract that gets disconnected"
        }
      },
      "getAddress(bytes32)": {
        "params": {
          "_key": "The key that indexes the value"
        }
      },
      "getBool(bytes32)": {
        "params": {
          "_key": "The key that indexes the value"
        }
      },
      "getBytes(bytes32)": {
        "params": {
          "_key": "The key that indexes the value"
        }
      },
      "getInt(bytes32)": {
        "params": {
          "_key": "The key that indexes the value"
        }
      },
      "getString(bytes32)": {
        "params": {
          "_key": "The key that indexes the value"
        }
      },
      "getUint(bytes32)": {
        "params": {
          "_key": "The key that indexes the value"
        }
      },
      "isContractConnected(address)": {
        "params": {
          "whichContract": "The address of the contract that is connected or not"
        }
      },
      "isOwner()": {
        "return": "true if `msg.sender` is the owner of the contract."
      },
      "owner()": {
        "return": "the address of the owner."
      },
      "setAddress(bytes32,address)": {
        "params": {
          "_key": "The key that indexes the value"
        }
      },
      "setBol(bytes32,bool)": {
        "params": {
          "_key": "The key that indexes the value"
        }
      },
      "setBytes(bytes32,bytes)": {
        "params": {
          "_key": "The key that indexes the value"
        }
      },
      "setInt(bytes32,int256)": {
        "params": {
          "_key": "The key that indexes the value"
        }
      },
      "setString(bytes32,string)": {
        "params": {
          "_key": "The key that indexes the value"
        }
      },
      "setUint(bytes32,uint256)": {
        "params": {
          "_key": "The key that indexes the value"
        }
      },
      "transferOwnership(address)": {
        "details": "Allows the current owner to transfer control of the contract to a newOwner.",
        "params": {
          "newOwner": "The address to transfer ownership to."
        }
      }
    },
    "title": "EternalStorage"
  },
  "userdoc": {
    "methods": {
      "connectContract(address)": {
        "notice": "Whitlists (\"connects\") a contract to be able to write the eternal storage"
      },
      "deleteAddress(bytes32)": {
        "notice": "Deletes the value of an address corresponding to a key"
      },
      "deleteBool(bytes32)": {
        "notice": "Deletes the value of a bool corresponding to a key"
      },
      "deleteBytes(bytes32)": {
        "notice": "Deletes the value of a bytes32 corresponding to a key"
      },
      "deleteInt(bytes32)": {
        "notice": "Deletes the value of a int256 corresponding to a key"
      },
      "deleteString(bytes32)": {
        "notice": "Deletes the value of a string corresponding to a key"
      },
      "deleteUint(bytes32)": {
        "notice": "Deletes the value of a uint256 corresponding to a key"
      },
      "disconnectContract(address)": {
        "notice": "Unwhitlists (\"disconnects\") a contract so it will no longer be able to write the eternal storage"
      },
      "getAddress(bytes32)": {
        "notice": "Reads the value of an address corresponding to a key"
      },
      "getBool(bytes32)": {
        "notice": "Reads the value of a bool corresponding to a key"
      },
      "getBytes(bytes32)": {
        "notice": "Reads the value of a bytes32 corresponding to a key"
      },
      "getInt(bytes32)": {
        "notice": "Reads the value of a int256 corresponding to a key"
      },
      "getString(bytes32)": {
        "notice": "Reads the value of a string corresponding to a key"
      },
      "getUint(bytes32)": {
        "notice": "Reads the value of a uint256 corresponding to a key"
      },
      "isContractConnected(address)": {
        "notice": "Returns whether a particular contract is whitelisted (\"connected\") to be able to write the eternal storage"
      },
      "setAddress(bytes32,address)": {
        "notice": "Sets the value of an address corresponding to a key"
      },
      "setBol(bytes32,bool)": {
        "notice": "Sets the value of a bool corresponding to a key"
      },
      "setBytes(bytes32,bytes)": {
        "notice": "Sets the value of a bytes32 corresponding to a key"
      },
      "setInt(bytes32,int256)": {
        "notice": "Sets the value of a int256 corresponding to a key"
      },
      "setString(bytes32,string)": {
        "notice": "Sets the value of a string corresponding to a key"
      },
      "setUint(bytes32,uint256)": {
        "notice": "Sets the value of a uint256 corresponding to a key"
      },
      "transferOwnership(address)": {
        "notice": "Note that we have eliminated the renounceOwnership function, as it does not make sense in this environment"
      }
    }
  }
}