{
  "contractName": "EternalStorage",
  "abi": [
    {
      "constant": true,
      "inputs": [],
      "name": "owner",
      "outputs": [
        {
          "name": "",
          "type": "address"
        }
      ],
      "payable": false,
      "stateMutability": "view",
      "type": "function"
    },
    {
      "constant": true,
      "inputs": [],
      "name": "isOwner",
      "outputs": [
        {
          "name": "",
          "type": "bool"
        }
      ],
      "payable": false,
      "stateMutability": "view",
      "type": "function"
    },
    {
      "constant": false,
      "inputs": [
        {
          "name": "newOwner",
          "type": "address"
        }
      ],
      "name": "transferOwnership",
      "outputs": [],
      "payable": false,
      "stateMutability": "nonpayable",
      "type": "function"
    },
    {
      "inputs": [
        {
          "name": "version",
          "type": "bytes32"
        }
      ],
      "payable": false,
      "stateMutability": "nonpayable",
      "type": "constructor"
    },
    {
      "anonymous": false,
      "inputs": [
        {
          "indexed": false,
          "name": "whichContract",
          "type": "address"
        }
      ],
      "name": "ContractConnected",
      "type": "event"
    },
    {
      "anonymous": false,
      "inputs": [
        {
          "indexed": false,
          "name": "whichContract",
          "type": "address"
        }
      ],
      "name": "ContractDisconnected",
      "type": "event"
    },
    {
      "anonymous": false,
      "inputs": [
        {
          "indexed": true,
          "name": "previousOwner",
          "type": "address"
        },
        {
          "indexed": true,
          "name": "newOwner",
          "type": "address"
        }
      ],
      "name": "OwnershipTransferred",
      "type": "event"
    },
    {
      "constant": true,
      "inputs": [],
      "name": "version",
      "outputs": [
        {
          "name": "",
          "type": "bytes32"
        }
      ],
      "payable": false,
      "stateMutability": "view",
      "type": "function"
    },
    {
      "constant": true,
      "inputs": [
        {
          "name": "whichContract",
          "type": "address"
        }
      ],
      "name": "isContractConnected",
      "outputs": [
        {
          "name": "",
          "type": "bool"
        }
      ],
      "payable": false,
      "stateMutability": "view",
      "type": "function"
    },
    {
      "constant": false,
      "inputs": [
        {
          "name": "whichContract",
          "type": "address"
        }
      ],
      "name": "connectContract",
      "outputs": [
        {
          "name": "",
          "type": "bool"
        }
      ],
      "payable": false,
      "stateMutability": "nonpayable",
      "type": "function"
    },
    {
      "constant": false,
      "inputs": [
        {
          "name": "whichContract",
          "type": "address"
        }
      ],
      "name": "disconnectContract",
      "outputs": [
        {
          "name": "",
          "type": "bool"
        }
      ],
      "payable": false,
      "stateMutability": "nonpayable",
      "type": "function"
    },
    {
      "constant": true,
      "inputs": [
        {
          "name": "_key",
          "type": "bytes32"
        }
      ],
      "name": "getUint",
      "outputs": [
        {
          "name": "",
          "type": "uint256"
        }
      ],
      "payable": false,
      "stateMutability": "view",
      "type": "function"
    },
    {
      "constant": false,
      "inputs": [
        {
          "name": "_key",
          "type": "bytes32"
        },
        {
          "name": "_value",
          "type": "uint256"
        }
      ],
      "name": "setUint",
      "outputs": [
        {
          "name": "",
          "type": "bool"
        }
      ],
      "payable": false,
      "stateMutability": "nonpayable",
      "type": "function"
    },
    {
      "constant": false,
      "inputs": [
        {
          "name": "_key",
          "type": "bytes32"
        }
      ],
      "name": "deleteUint",
      "outputs": [
        {
          "name": "",
          "type": "bool"
        }
      ],
      "payable": false,
      "stateMutability": "nonpayable",
      "type": "function"
    },
    {
      "constant": true,
      "inputs": [
        {
          "name": "_key",
          "type": "bytes32"
        }
      ],
      "name": "getInt",
      "outputs": [
        {
          "name": "",
          "type": "int256"
        }
      ],
      "payable": false,
      "stateMutability": "view",
      "type": "function"
    },
    {
      "constant": false,
      "inputs": [
        {
          "name": "_key",
          "type": "bytes32"
        },
        {
          "name": "_value",
          "type": "int256"
        }
      ],
      "name": "setInt",
      "outputs": [
        {
          "name": "",
          "type": "bool"
        }
      ],
      "payable": false,
      "stateMutability": "nonpayable",
      "type": "function"
    },
    {
      "constant": false,
      "inputs": [
        {
          "name": "_key",
          "type": "bytes32"
        }
      ],
      "name": "deleteInt",
      "outputs": [
        {
          "name": "",
          "type": "bool"
        }
      ],
      "payable": false,
      "stateMutability": "nonpayable",
      "type": "function"
    },
    {
      "constant": true,
      "inputs": [
        {
          "name": "_key",
          "type": "bytes32"
        }
      ],
      "name": "getAddress",
      "outputs": [
        {
          "name": "",
          "type": "address"
        }
      ],
      "payable": false,
      "stateMutability": "view",
      "type": "function"
    },
    {
      "constant": false,
      "inputs": [
        {
          "name": "_key",
          "type": "bytes32"
        },
        {
          "name": "_value",
          "type": "address"
        }
      ],
      "name": "setAddress",
      "outputs": [
        {
          "name": "",
          "type": "bool"
        }
      ],
      "payable": false,
      "stateMutability": "nonpayable",
      "type": "function"
    },
    {
      "constant": false,
      "inputs": [
        {
          "name": "_key",
          "type": "bytes32"
        }
      ],
      "name": "deleteAddress",
      "outputs": [
        {
          "name": "",
          "type": "bool"
        }
      ],
      "payable": false,
      "stateMutability": "nonpayable",
      "type": "function"
    },
    {
      "constant": true,
      "inputs": [
        {
          "name": "_key",
          "type": "bytes32"
        }
      ],
      "name": "getBytes",
      "outputs": [
        {
          "name": "",
          "type": "bytes"
        }
      ],
      "payable": false,
      "stateMutability": "view",
      "type": "function"
    },
    {
      "constant": false,
      "inputs": [
        {
          "name": "_key",
          "type": "bytes32"
        },
        {
          "name": "_value",
          "type": "bytes"
        }
      ],
      "name": "setBytes",
      "outputs": [
        {
          "name": "",
          "type": "bool"
        }
      ],
      "payable": false,
      "stateMutability": "nonpayable",
      "type": "function"
    },
    {
      "constant": false,
      "inputs": [
        {
          "name": "_key",
          "type": "bytes32"
        }
      ],
      "name": "deleteBytes",
      "outputs": [
        {
          "name": "",
          "type": "bool"
        }
      ],
      "payable": false,
      "stateMutability": "nonpayable",
      "type": "function"
    },
    {
      "constant": true,
      "inputs": [
        {
          "name": "_key",
          "type": "bytes32"
        }
      ],
      "name": "getBool",
      "outputs": [
        {
          "name": "",
          "type": "bool"
        }
      ],
      "payable": false,
      "stateMutability": "view",
      "type": "function"
    },
    {
      "constant": false,
      "inputs": [
        {
          "name": "_key",
          "type": "bytes32"
        },
        {
          "name": "_value",
          "type": "bool"
        }
      ],
      "name": "setBol",
      "outputs": [
        {
          "name": "",
          "type": "bool"
        }
      ],
      "payable": false,
      "stateMutability": "nonpayable",
      "type": "function"
    },
    {
      "constant": false,
      "inputs": [
        {
          "name": "_key",
          "type": "bytes32"
        }
      ],
      "name": "deleteBool",
      "outputs": [
        {
          "name": "",
          "type": "bool"
        }
      ],
      "payable": false,
      "stateMutability": "nonpayable",
      "type": "function"
    },
    {
      "constant": true,
      "inputs": [
        {
          "name": "_key",
          "type": "bytes32"
        }
      ],
      "name": "getString",
      "outputs": [
        {
          "name": "",
          "type": "string"
        }
      ],
      "payable": false,
      "stateMutability": "view",
      "type": "function"
    },
    {
      "constant": false,
      "inputs": [
        {
          "name": "_key",
          "type": "bytes32"
        },
        {
          "name": "_value",
          "type": "string"
        }
      ],
      "name": "setString",
      "outputs": [
        {
          "name": "",
          "type": "bool"
        }
      ],
      "payable": false,
      "stateMutability": "nonpayable",
      "type": "function"
    },
    {
      "constant": false,
      "inputs": [
        {
          "name": "_key",
          "type": "bytes32"
        }
      ],
      "name": "deleteString",
      "outputs": [
        {
          "name": "",
          "type": "bool"
        }
      ],
      "payable": false,
      "stateMutability": "nonpayable",
      "type": "function"
    }
  ],
  "bytecode": "0x608060405234801561001057600080fd5b506040516020806120cb83398101806040528101908080519060200190929190505050336000806101000a81548173ffffffffffffffffffffffffffffffffffffffff021916908373ffffffffffffffffffffffffffffffffffffffff1602179055506000809054906101000a900473ffffffffffffffffffffffffffffffffffffffff1673ffffffffffffffffffffffffffffffffffffffff16600073ffffffffffffffffffffffffffffffffffffffff167f8be0079c531659141344cd1fd0a4f28419497f9722a3daafe3b4186f6b6457e060405160405180910390a3806002816000191690555050611fc18061010a6000396000f300608060405260043610610149576000357c0100000000000000000000000000000000000000000000000000000000900463ffffffff1680630e14a3761461014e5780631568a36a1461019757806321f8a721146101ec5780632c62ff2d1461025d5780632e28d084146102a65780633e49bed01461030757806347724b651461035a57806354fd4d50146103b5578063616b59f6146103e85780636e899550146104315780637ae1cfca146104925780638c160095146104db5780638da5cb5b146105245780638f32d59b1461057b578063986e791a146105aa578063bd02d0f514610654578063c031a18014610699578063ca446dd914610743578063dc97d962146107ac578063e2a4853a146107f1578063e2b202bf14610844578063e4548ea71461088d578063ebb79532146108e8578063f2fde38b14610943578063f6bb3cc414610986575b600080fd5b34801561015a57600080fd5b5061017d60048036038101908080356000191690602001909291905050506109cf565b604051808215151515815260200191505060405180910390f35b3480156101a357600080fd5b506101d26004803603810190808035600019169060200190929190803515159060200190929190505050610ad9565b604051808215151515815260200191505060405180910390f35b3480156101f857600080fd5b5061021b6004803603810190808035600019169060200190929190505050610bd9565b604051808273ffffffffffffffffffffffffffffffffffffffff1673ffffffffffffffffffffffffffffffffffffffff16815260200191505060405180910390f35b34801561026957600080fd5b5061028c6004803603810190808035600019169060200190929190505050610c1e565b604051808215151515815260200191505060405180910390f35b3480156102b257600080fd5b506102ed6004803603810190808035600019169060200190929190803590602001908201803590602001919091929391929390505050610d15565b604051808215151515815260200191505060405180910390f35b34801561031357600080fd5b50610340600480360381019080803560001916906020019092919080359060200190929190505050610e0e565b604051808215151515815260200191505060405180910390f35b34801561036657600080fd5b5061039b600480360381019080803573ffffffffffffffffffffffffffffffffffffffff169060200190929190505050610efb565b604051808215151515815260200191505060405180910390f35b3480156103c157600080fd5b506103ca611084565b60405180826000191660001916815260200191505060405180910390f35b3480156103f457600080fd5b50610417600480360381019080803560001916906020019092919050505061108e565b604051808215151515815260200191505060405180910390f35b34801561043d57600080fd5b506104786004803603810190808035600019169060200190929190803590602001908201803590602001919091929391929390505050611181565b604051808215151515815260200191505060405180910390f35b34801561049e57600080fd5b506104c1600480360381019080803560001916906020019092919050505061127a565b604051808215151515815260200191505060405180910390f35b3480156104e757600080fd5b5061050a60048036038101908080356000191690602001909291905050506112ac565b604051808215151515815260200191505060405180910390f35b34801561053057600080fd5b50610539611397565b604051808273ffffffffffffffffffffffffffffffffffffffff1673ffffffffffffffffffffffffffffffffffffffff16815260200191505060405180910390f35b34801561058757600080fd5b506105906113c0565b604051808215151515815260200191505060405180910390f35b3480156105b657600080fd5b506105d96004803603810190808035600019169060200190929190505050611417565b6040518080602001828103825283818151815260200191508051906020019080838360005b838110156106195780820151818401526020810190506105fe565b50505050905090810190601f1680156106465780820380516001836020036101000a031916815260200191505b509250505060405180910390f35b34801561066057600080fd5b5061068360048036038101908080356000191690602001909291905050506114d4565b6040518082815260200191505060405180910390f35b3480156106a557600080fd5b506106c860048036038101908080356000191690602001909291905050506114f9565b6040518080602001828103825283818151815260200191508051906020019080838360005b838110156107085780820151818401526020810190506106ed565b50505050905090810190601f1680156107355780820380516001836020036101000a031916815260200191505b509250505060405180910390f35b34801561074f57600080fd5b506107926004803603810190808035600019169060200190929190803573ffffffffffffffffffffffffffffffffffffffff1690602001909291905050506115b6565b604051808215151515815260200191505060405180910390f35b3480156107b857600080fd5b506107db60048036038101908080356000191690602001909291905050506116dd565b6040518082815260200191505060405180910390f35b3480156107fd57600080fd5b5061082a600480360381019080803560001916906020019092919080359060200190929190505050611702565b604051808215151515815260200191505060405180910390f35b34801561085057600080fd5b5061087360048036038101908080356000191690602001909291905050506117ef565b604051808215151515815260200191505060405180910390f35b34801561089957600080fd5b506108ce600480360381019080803573ffffffffffffffffffffffffffffffffffffffff1690602001909291905050506118da565b604051808215151515815260200191505060405180910390f35b3480156108f457600080fd5b50610929600480360381019080803573ffffffffffffffffffffffffffffffffffffffff169060200190929190505050611a64565b604051808215151515815260200191505060405180910390f35b34801561094f57600080fd5b50610984600480360381019080803573ffffffffffffffffffffffffffffffffffffffff169060200190929190505050611aba565b005b34801561099257600080fd5b506109b56004803603810190808035600019169060200190929190505050611b8a565b604051808215151515815260200191505060405180910390f35b6000600160003373ffffffffffffffffffffffffffffffffffffffff1673ffffffffffffffffffffffffffffffffffffffff16815260200190815260200160002060009054906101000a900460ff161515610a92576040517f08c379a000000000000000000000000000000000000000000000000000000000815260040180806020018281038252601e8152602001807f43616c6c696e6720636f6e7472616374206e6f7420636f6e6e6563746564000081525060200191505060405180910390fd5b60056000836000191660001916815260200190815260200160002060006101000a81549073ffffffffffffffffffffffffffffffffffffffff021916905560019050919050565b6000600160003373ffffffffffffffffffffffffffffffffffffffff1673ffffffffffffffffffffffffffffffffffffffff16815260200190815260200160002060009054906101000a900460ff161515610b9c576040517f08c379a000000000000000000000000000000000000000000000000000000000815260040180806020018281038252601e8152602001807f43616c6c696e6720636f6e7472616374206e6f7420636f6e6e6563746564000081525060200191505060405180910390fd5b8160076000856000191660001916815260200190815260200160002060006101000a81548160ff0219169083151502179055506001905092915050565b600060056000836000191660001916815260200190815260200160002060009054906101000a900473ffffffffffffffffffffffffffffffffffffffff169050919050565b6000600160003373ffffffffffffffffffffffffffffffffffffffff1673ffffffffffffffffffffffffffffffffffffffff16815260200190815260200160002060009054906101000a900460ff161515610ce1576040517f08c379a000000000000000000000000000000000000000000000000000000000815260040180806020018281038252601e8152602001807f43616c6c696e6720636f6e7472616374206e6f7420636f6e6e6563746564000081525060200191505060405180910390fd5b60076000836000191660001916815260200190815260200160002060006101000a81549060ff021916905560019050919050565b6000600160003373ffffffffffffffffffffffffffffffffffffffff1673ffffffffffffffffffffffffffffffffffffffff16815260200190815260200160002060009054906101000a900460ff161515610dd8576040517f08c379a000000000000000000000000000000000000000000000000000000000815260040180806020018281038252601e8152602001807f43616c6c696e6720636f6e7472616374206e6f7420636f6e6e6563746564000081525060200191505060405180910390fd5b82826006600087600019166000191681526020019081526020016000209190610e02929190611de0565b50600190509392505050565b6000600160003373ffffffffffffffffffffffffffffffffffffffff1673ffffffffffffffffffffffffffffffffffffffff16815260200190815260200160002060009054906101000a900460ff161515610ed1576040517f08c379a000000000000000000000000000000000000000000000000000000000815260040180806020018281038252601e8152602001807f43616c6c696e6720636f6e7472616374206e6f7420636f6e6e6563746564000081525060200191505060405180910390fd5b81600460008560001916600019168152602001908152602001600020819055506001905092915050565b60008060009054906101000a900473ffffffffffffffffffffffffffffffffffffffff1673ffffffffffffffffffffffffffffffffffffffff163373ffffffffffffffffffffffffffffffffffffffff16141515610fc1576040517f08c379a000000000000000000000000000000000000000000000000000000000815260040180806020018281038252600d8152602001807f4e6f7420746865206f776e65720000000000000000000000000000000000000081525060200191505060405180910390fd5b60018060008473ffffffffffffffffffffffffffffffffffffffff1673ffffffffffffffffffffffffffffffffffffffff16815260200190815260200160002060006101000a81548160ff0219169083151502179055507f1383c346b41a42665ef371e6634ef404ca4b1554b78560f0b0a45148065eecdc82604051808273ffffffffffffffffffffffffffffffffffffffff1673ffffffffffffffffffffffffffffffffffffffff16815260200191505060405180910390a160019050919050565b6000600254905090565b6000600160003373ffffffffffffffffffffffffffffffffffffffff1673ffffffffffffffffffffffffffffffffffffffff16815260200190815260200160002060009054906101000a900460ff161515611151576040517f08c379a000000000000000000000000000000000000000000000000000000000815260040180806020018281038252601e8152602001807f43616c6c696e6720636f6e7472616374206e6f7420636f6e6e6563746564000081525060200191505060405180910390fd5b60066000836000191660001916815260200190815260200160002060006111789190611e60565b60019050919050565b6000600160003373ffffffffffffffffffffffffffffffffffffffff1673ffffffffffffffffffffffffffffffffffffffff16815260200190815260200160002060009054906101000a900460ff161515611244576040517f08c379a000000000000000000000000000000000000000000000000000000000815260040180806020018281038252601e8152602001807f43616c6c696e6720636f6e7472616374206e6f7420636f6e6e6563746564000081525060200191505060405180910390fd5b8282600860008760001916600019168152602001908152602001600020919061126e929190611ea8565b50600190509392505050565b600060076000836000191660001916815260200190815260200160002060009054906101000a900460ff169050919050565b6000600160003373ffffffffffffffffffffffffffffffffffffffff1673ffffffffffffffffffffffffffffffffffffffff16815260200190815260200160002060009054906101000a900460ff16151561136f576040517f08c379a000000000000000000000000000000000000000000000000000000000815260040180806020018281038252601e8152602001807f43616c6c696e6720636f6e7472616374206e6f7420636f6e6e6563746564000081525060200191505060405180910390fd5b6004600083600019166000191681526020019081526020016000206000905560019050919050565b60008060009054906101000a900473ffffffffffffffffffffffffffffffffffffffff16905090565b60008060009054906101000a900473ffffffffffffffffffffffffffffffffffffffff1673ffffffffffffffffffffffffffffffffffffffff163373ffffffffffffffffffffffffffffffffffffffff1614905090565b60606008600083600019166000191681526020019081526020016000208054600181600116156101000203166002900480601f0160208091040260200160405190810160405280929190818152602001828054600181600116156101000203166002900480156114c85780601f1061149d576101008083540402835291602001916114c8565b820191906000526020600020905b8154815290600101906020018083116114ab57829003601f168201915b50505050509050919050565b6000600360008360001916600019168152602001908152602001600020549050919050565b60606006600083600019166000191681526020019081526020016000208054600181600116156101000203166002900480601f0160208091040260200160405190810160405280929190818152602001828054600181600116156101000203166002900480156115aa5780601f1061157f576101008083540402835291602001916115aa565b820191906000526020600020905b81548152906001019060200180831161158d57829003601f168201915b50505050509050919050565b6000600160003373ffffffffffffffffffffffffffffffffffffffff1673ffffffffffffffffffffffffffffffffffffffff16815260200190815260200160002060009054906101000a900460ff161515611679576040517f08c379a000000000000000000000000000000000000000000000000000000000815260040180806020018281038252601e8152602001807f43616c6c696e6720636f6e7472616374206e6f7420636f6e6e6563746564000081525060200191505060405180910390fd5b8160056000856000191660001916815260200190815260200160002060006101000a81548173ffffffffffffffffffffffffffffffffffffffff021916908373ffffffffffffffffffffffffffffffffffffffff1602179055506001905092915050565b6000600460008360001916600019168152602001908152602001600020549050919050565b6000600160003373ffffffffffffffffffffffffffffffffffffffff1673ffffffffffffffffffffffffffffffffffffffff16815260200190815260200160002060009054906101000a900460ff1615156117c5576040517f08c379a000000000000000000000000000000000000000000000000000000000815260040180806020018281038252601e8152602001807f43616c6c696e6720636f6e7472616374206e6f7420636f6e6e6563746564000081525060200191505060405180910390fd5b81600360008560001916600019168152602001908152602001600020819055506001905092915050565b6000600160003373ffffffffffffffffffffffffffffffffffffffff1673ffffffffffffffffffffffffffffffffffffffff16815260200190815260200160002060009054906101000a900460ff1615156118b2576040517f08c379a000000000000000000000000000000000000000000000000000000000815260040180806020018281038252601e8152602001807f43616c6c696e6720636f6e7472616374206e6f7420636f6e6e6563746564000081525060200191505060405180910390fd5b6003600083600019166000191681526020019081526020016000206000905560019050919050565b60008060009054906101000a900473ffffffffffffffffffffffffffffffffffffffff1673ffffffffffffffffffffffffffffffffffffffff163373ffffffffffffffffffffffffffffffffffffffff161415156119a0576040517f08c379a000000000000000000000000000000000000000000000000000000000815260040180806020018281038252600d8152602001807f4e6f7420746865206f776e65720000000000000000000000000000000000000081525060200191505060405180910390fd5b6000600160008473ffffffffffffffffffffffffffffffffffffffff1673ffffffffffffffffffffffffffffffffffffffff16815260200190815260200160002060006101000a81548160ff0219169083151502179055507fdb93a6c8e2d134d883c47922ea733c0c5dd53255d5b8f4534f797149e04da31882604051808273ffffffffffffffffffffffffffffffffffffffff1673ffffffffffffffffffffffffffffffffffffffff16815260200191505060405180910390a160019050919050565b6000600160008373ffffffffffffffffffffffffffffffffffffffff1673ffffffffffffffffffffffffffffffffffffffff16815260200190815260200160002060009054906101000a900460ff169050919050565b6000809054906101000a900473ffffffffffffffffffffffffffffffffffffffff1673ffffffffffffffffffffffffffffffffffffffff163373ffffffffffffffffffffffffffffffffffffffff16141515611b7e576040517f08c379a000000000000000000000000000000000000000000000000000000000815260040180806020018281038252600d8152602001807f4e6f7420746865206f776e65720000000000000000000000000000000000000081525060200191505060405180910390fd5b611b8781611c7d565b50565b6000600160003373ffffffffffffffffffffffffffffffffffffffff1673ffffffffffffffffffffffffffffffffffffffff16815260200190815260200160002060009054906101000a900460ff161515611c4d576040517f08c379a000000000000000000000000000000000000000000000000000000000815260040180806020018281038252601e8152602001807f43616c6c696e6720636f6e7472616374206e6f7420636f6e6e6563746564000081525060200191505060405180910390fd5b6008600083600019166000191681526020019081526020016000206000611c749190611f28565b60019050919050565b600073ffffffffffffffffffffffffffffffffffffffff168173ffffffffffffffffffffffffffffffffffffffff1614151515611d22576040517f08c379a00000000000000000000000000000000000000000000000000000000081526004018080602001828103825260198152602001807f4f776e65722063616e6e6f74206265206164647265737320300000000000000081525060200191505060405180910390fd5b8073ffffffffffffffffffffffffffffffffffffffff166000809054906101000a900473ffffffffffffffffffffffffffffffffffffffff1673ffffffffffffffffffffffffffffffffffffffff167f8be0079c531659141344cd1fd0a4f28419497f9722a3daafe3b4186f6b6457e060405160405180910390a3806000806101000a81548173ffffffffffffffffffffffffffffffffffffffff021916908373ffffffffffffffffffffffffffffffffffffffff16021790555050565b828054600181600116156101000203166002900490600052602060002090601f016020900481019282601f10611e2157803560ff1916838001178555611e4f565b82800160010185558215611e4f579182015b82811115611e4e578235825591602001919060010190611e33565b5b509050611e5c9190611f70565b5090565b50805460018160011615610100020316600290046000825580601f10611e865750611ea5565b601f016020900490600052602060002090810190611ea49190611f70565b5b50565b828054600181600116156101000203166002900490600052602060002090601f016020900481019282601f10611ee957803560ff1916838001178555611f17565b82800160010185558215611f17579182015b82811115611f16578235825591602001919060010190611efb565b5b509050611f249190611f70565b5090565b50805460018160011615610100020316600290046000825580601f10611f4e5750611f6d565b601f016020900490600052602060002090810190611f6c9190611f70565b5b50565b611f9291905b80821115611f8e576000816000905550600101611f76565b5090565b905600a165627a7a7230582056ebf33e64bd2f8da67b571d71f95ee3426ae7109eeeb5bcb078018e10e92dfe0029",
  "source": "pragma solidity ^0.4.21;\n\nimport \"./Ownable.sol\";\n\n/**\n * @title EternalStorage\n * @dev The EternalStorage contract can be used to keep all the storage needed for contracts, which would\n * then access it (to set and read) by reference. This way, contracts can stay storage-less, and therefore\n * can be easily updated (migrated) without affecting the storage.\n * @dev Contracts that will be using this EternalStorage repository need to be whitelisted (\"connected\")\n * in order to be able to write the storage. Only the owner can whitelist (\"connect\") and unwhitelist\n * (\"disconnect\") individual contracts.\n */\ncontract EternalStorage is Ownable {\n\n    mapping (address => bool) private _connectedContracts;\n    bytes32 private _version;\n\n    event ContractConnected(address whichContract);\n    event ContractDisconnected(address whichContract);\n\n    mapping(bytes32 => uint256) private _uIntStorage;\n    mapping(bytes32 => int256) private _intStorage;\n    mapping(bytes32 => address) private _addressStorage;\n    mapping(bytes32 => bytes) private _bytesStorage;\n    mapping(bytes32 => bool) private _boolStorage;\n    mapping(bytes32 => string) private _stringStorage;\n\n    constructor(bytes32 version) public {\n        _version = version;\n    }\n\n    /**\n     * @dev Throws if called by any account other than the _userContract.\n     */\n    modifier onlyConnectedContract() {\n        require(_connectedContracts[msg.sender], \"Calling contract not connected\");\n        _;\n    }\n\n    /**\n     * @notice Returns the version of this eternal storage\n     */\n    function version() public view returns (bytes32) {\n        return _version;\n    }\n\n    /**\n     * @notice Returns whether a particular contract is whitelisted (\"connected\") to be able to\n     * write the eternal storage\n     * @param whichContract The address of the contract that is connected or not\n     */\n    function isContractConnected(address whichContract) public view returns (bool) {\n        return _connectedContracts[whichContract];\n    }\n\n    /**\n     * @notice Whitlists (\"connects\") a contract to be able to write the eternal storage\n     * @dev Only the owner can connect a contract to the eternal storage\n     * @param whichContract The address of the contract that gets connected\n     */\n    function connectContract(address whichContract) external onlyOwner returns (bool) {\n        _connectedContracts[whichContract] = true;\n        emit ContractConnected(whichContract);\n        return true;\n    }\n\n    /**\n     * @notice Unwhitlists (\"disconnects\") a contract so it will no longer be able to\n     * write the eternal storage\n     * @dev Only the owner can disconnect a contract from the eternal storage\n     * @param whichContract The address of the contract that gets disconnected\n     */\n    function disconnectContract(address whichContract) external onlyOwner returns (bool) {\n        _connectedContracts[whichContract] = false;\n        emit ContractDisconnected(whichContract);\n        return true;\n    }\n\n    // uint256\n\n    /**\n     * @notice Reads the value of a uint256 corresponding to a key\n     * @param _key The key that indexes the value\n     */\n    function getUint(bytes32 _key) external view returns(uint256) {\n        return _uIntStorage[_key];\n    }\n\n    /**\n     * @notice Sets the value of a uint256 corresponding to a key\n     * @param _key The key that indexes the value\n     */\n    function setUint(bytes32 _key, uint _value) onlyConnectedContract external returns (bool) {\n        _uIntStorage[_key] = _value;\n        return true;\n    }\n\n    /**\n     * @notice Deletes the value of a uint256 corresponding to a key\n     * @param _key The key that indexes the value\n     */\n    function deleteUint(bytes32 _key) onlyConnectedContract external returns (bool) {\n        delete _uIntStorage[_key];\n        return true;\n    }\n\n    // int256\n\n    /**\n     * @notice Reads the value of a int256 corresponding to a key\n     * @param _key The key that indexes the value\n     */\n    function getInt(bytes32 _key) external view returns(int256) {\n        return _intStorage[_key];\n    }\n\n    /**\n     * @notice Sets the value of a int256 corresponding to a key\n     * @param _key The key that indexes the value\n     */\n    function setInt(bytes32 _key, int256 _value) onlyConnectedContract external returns (bool) {\n        _intStorage[_key] = _value;\n        return true;\n    }\n\n    /**\n     * @notice Deletes the value of a int256 corresponding to a key\n     * @param _key The key that indexes the value\n     */\n    function deleteInt(bytes32 _key) onlyConnectedContract external returns (bool) {\n        delete _intStorage[_key];\n        return true;\n    }\n\n    // address\n\n    /**\n     * @notice Reads the value of an address corresponding to a key\n     * @param _key The key that indexes the value\n     */\n    function getAddress(bytes32 _key) external view returns(address) {\n        return _addressStorage[_key];\n    }\n\n    /**\n     * @notice Sets the value of an address corresponding to a key\n     * @param _key The key that indexes the value\n     */\n    function setAddress(bytes32 _key, address _value) onlyConnectedContract external returns (bool) {\n        _addressStorage[_key] = _value;\n        return true;\n    }\n\n    /**\n     * @notice Deletes the value of an address corresponding to a key\n     * @param _key The key that indexes the value\n     */\n    function deleteAddress(bytes32 _key) onlyConnectedContract external returns (bool) {\n        delete _addressStorage[_key];\n        return true;\n    }\n\n    // bytes\n\n    /**\n     * @notice Reads the value of a bytes32 corresponding to a key\n     * @param _key The key that indexes the value\n     */\n    function getBytes(bytes32 _key) external view returns(bytes) {\n        return _bytesStorage[_key];\n    }\n\n    /**\n     * @notice Sets the value of a bytes32 corresponding to a key\n     * @param _key The key that indexes the value\n     */\n    function setBytes(bytes32 _key, bytes _value) onlyConnectedContract external returns (bool) {\n        _bytesStorage[_key] = _value;\n        return true;\n    }\n\n    /**\n     * @notice Deletes the value of a bytes32 corresponding to a key\n     * @param _key The key that indexes the value\n     */\n    function deleteBytes(bytes32 _key) onlyConnectedContract external returns (bool) {\n        delete _bytesStorage[_key];\n        return true;\n    }\n\n    // bool\n\n    /**\n     * @notice Reads the value of a bool corresponding to a key\n     * @param _key The key that indexes the value\n     */\n    function getBool(bytes32 _key) external view returns(bool) {\n        return _boolStorage[_key];\n    }\n\n    /**\n     * @notice Sets the value of a bool corresponding to a key\n     * @param _key The key that indexes the value\n     */\n    function setBol(bytes32 _key, bool _value) onlyConnectedContract external returns (bool) {\n        _boolStorage[_key] = _value;\n        return true;\n    }\n\n    /**\n     * @notice Deletes the value of a bool corresponding to a key\n     * @param _key The key that indexes the value\n     */\n    function deleteBool(bytes32 _key) onlyConnectedContract external returns (bool) {\n        delete _boolStorage[_key];\n        return true;\n    }\n\n    // string\n\n    /**\n     * @notice Reads the value of a string corresponding to a key\n     * @param _key The key that indexes the value\n     */\n    function getString(bytes32 _key) external view returns(string) {\n        return _stringStorage[_key];\n    }\n\n    /**\n     * @notice Sets the value of a string corresponding to a key\n     * @param _key The key that indexes the value\n     */\n    function setString(bytes32 _key, string _value) onlyConnectedContract external returns (bool) {\n        _stringStorage[_key] = _value;\n        return true;\n    }\n\n    /**\n     * @notice Deletes the value of a string corresponding to a key\n     * @param _key The key that indexes the value\n     */\n    function deleteString(bytes32 _key) onlyConnectedContract external returns (bool) {\n        delete _stringStorage[_key];\n        return true;\n    }\n\n}",
  "sourcePath": "/Users/julio/go/src/github.com/juliofaura/EM-Token/contracts/EternalStorage.sol",
  "compiler": {
    "name": "solc",
    "version": "0.4.25+commit.59dbf8f1.Emscripten.clang"
  },
  "schemaVersion": "3.0.1",
  "updatedAt": "2019-01-14T01:10:55.897Z",
  "devdoc": {
    "methods": {
      "connectContract(address)": {
        "details": "Only the owner can connect a contract to the eternal storage",
        "params": {
          "whichContract": "The address of the contract that gets connected"
        }
      },
      "deleteAddress(bytes32)": {
        "params": {
          "_key": "The key that indexes the value"
        }
      },
      "deleteBool(bytes32)": {
        "params": {
          "_key": "The key that indexes the value"
        }
      },
      "deleteBytes(bytes32)": {
        "params": {
          "_key": "The key that indexes the value"
        }
      },
      "deleteInt(bytes32)": {
        "params": {
          "_key": "The key that indexes the value"
        }
      },
      "deleteString(bytes32)": {
        "params": {
          "_key": "The key that indexes the value"
        }
      },
      "deleteUint(bytes32)": {
        "params": {
          "_key": "The key that indexes the value"
        }
      },
      "disconnectContract(address)": {
        "details": "Only the owner can disconnect a contract from the eternal storage",
        "params": {
          "whichContract": "The address of the contract that gets disconnected"
        }
      },
      "getAddress(bytes32)": {
        "params": {
          "_key": "The key that indexes the value"
        }
      },
      "getBool(bytes32)": {
        "params": {
          "_key": "The key that indexes the value"
        }
      },
      "getBytes(bytes32)": {
        "params": {
          "_key": "The key that indexes the value"
        }
      },
      "getInt(bytes32)": {
        "params": {
          "_key": "The key that indexes the value"
        }
      },
      "getString(bytes32)": {
        "params": {
          "_key": "The key that indexes the value"
        }
      },
      "getUint(bytes32)": {
        "params": {
          "_key": "The key that indexes the value"
        }
      },
      "isContractConnected(address)": {
        "params": {
          "whichContract": "The address of the contract that is connected or not"
        }
      },
      "isOwner()": {
        "return": "true if `msg.sender` is the owner of the contract."
      },
      "owner()": {
        "return": "the address of the owner."
      },
      "setAddress(bytes32,address)": {
        "params": {
          "_key": "The key that indexes the value"
        }
      },
      "setBol(bytes32,bool)": {
        "params": {
          "_key": "The key that indexes the value"
        }
      },
      "setBytes(bytes32,bytes)": {
        "params": {
          "_key": "The key that indexes the value"
        }
      },
      "setInt(bytes32,int256)": {
        "params": {
          "_key": "The key that indexes the value"
        }
      },
      "setString(bytes32,string)": {
        "params": {
          "_key": "The key that indexes the value"
        }
      },
      "setUint(bytes32,uint256)": {
        "params": {
          "_key": "The key that indexes the value"
        }
      },
      "transferOwnership(address)": {
        "details": "Allows the current owner to transfer control of the contract to a newOwner.",
        "params": {
          "newOwner": "The address to transfer ownership to."
        }
      }
    },
    "title": "EternalStorage"
  },
  "userdoc": {
    "methods": {
      "connectContract(address)": {
        "notice": "Whitlists (\"connects\") a contract to be able to write the eternal storage"
      },
      "deleteAddress(bytes32)": {
        "notice": "Deletes the value of an address corresponding to a key"
      },
      "deleteBool(bytes32)": {
        "notice": "Deletes the value of a bool corresponding to a key"
      },
      "deleteBytes(bytes32)": {
        "notice": "Deletes the value of a bytes32 corresponding to a key"
      },
      "deleteInt(bytes32)": {
        "notice": "Deletes the value of a int256 corresponding to a key"
      },
      "deleteString(bytes32)": {
        "notice": "Deletes the value of a string corresponding to a key"
      },
      "deleteUint(bytes32)": {
        "notice": "Deletes the value of a uint256 corresponding to a key"
      },
      "disconnectContract(address)": {
        "notice": "Unwhitlists (\"disconnects\") a contract so it will no longer be able to write the eternal storage"
      },
      "getAddress(bytes32)": {
        "notice": "Reads the value of an address corresponding to a key"
      },
      "getBool(bytes32)": {
        "notice": "Reads the value of a bool corresponding to a key"
      },
      "getBytes(bytes32)": {
        "notice": "Reads the value of a bytes32 corresponding to a key"
      },
      "getInt(bytes32)": {
        "notice": "Reads the value of a int256 corresponding to a key"
      },
      "getString(bytes32)": {
        "notice": "Reads the value of a string corresponding to a key"
      },
      "getUint(bytes32)": {
        "notice": "Reads the value of a uint256 corresponding to a key"
      },
      "isContractConnected(address)": {
        "notice": "Returns whether a particular contract is whitelisted (\"connected\") to be able to write the eternal storage"
      },
      "setAddress(bytes32,address)": {
        "notice": "Sets the value of an address corresponding to a key"
      },
      "setBol(bytes32,bool)": {
        "notice": "Sets the value of a bool corresponding to a key"
      },
      "setBytes(bytes32,bytes)": {
        "notice": "Sets the value of a bytes32 corresponding to a key"
      },
      "setInt(bytes32,int256)": {
        "notice": "Sets the value of a int256 corresponding to a key"
      },
      "setString(bytes32,string)": {
        "notice": "Sets the value of a string corresponding to a key"
      },
      "setUint(bytes32,uint256)": {
        "notice": "Sets the value of a uint256 corresponding to a key"
      },
      "transferOwnership(address)": {
        "notice": "Note that we have eliminated the renounceOwnership function, as it does not make sense in this environment"
      },
      "version()": {
        "notice": "Returns the version of this eternal storage"
      }
    }
  }
}